S00D0000636C6F636B2E737265630B
S11300000C9434000C9451000C9451000C94510045
S11300100C9451000C9451000C9451000C94510018
S11300200C9451000C9451000C9451000C94510008
S11300300C9451000C9451000C9451000C945100F8
S11300400C94D4000C9451000C9451000C94510065
S11300500C9451000C9426010C9451000C94510002
S11300600C9451000C94510011241FBECFEFD8E022
S1130070DEBFCDBF11E0A0E0B1E0EAE7F3E002C0EB
S113008005900D92AA30B107D9F721E0AAE0B1E0BA
S113009001C01D92A631B207E1F70E945F010C94E2
S11300A0BB010C94000085B58B7F85BD85B582604E
S11300B085BDEEE6F0E080818160808316BC789493
S11300C00895CF93DF93AC01EC01D695C795D695EF
S11300D0C795D695C7959E01A5ECB0E20E94AC01E8
S11300E0FC01F295E295EF70EF27FF70EF27F09394
S11300F01201E093110128EE33E0E29FC001E39F77
S1130100900DF29F900D11249A01281B390B3695FE
S1130110279536952795ABE7B4E10E94AC019695F7
S113012087959093100180930F019A013695279536
S1130130369527950E94AC019C013695279564E677
S1130140629FC001639F900D11249A01281B390BF3
S1130150ADECBCEC0E94AC0196958795969587957D
S11301609695879590930E0180930D019A010E94B4
S1130170AC019695879596958795969587959C015C
S1130180220F331F880F991F880F991F880F991FFB
S1130190820F931F9A01281B390B30930C01209373
S11301A00B01DF91CF9108951F920F920FB60F921A
S11301B011248F93EF93FF9380910A01813051F4BE
S11301C080E185B9E0911101F0911201E050FF4FF7
S11301D080818BB980910A01823051F488E085B91D
S11301E0E0910F01F0911001E050FF4F80818BB935
S11301F080910A01833051F484E085B9E0910D01C6
S1130200F0910E01E050FF4F80818BB980910A017B
S1130210843051F482E085B9E0910B01F0910C0136
S1130220E050FF4F80818BB980910A018F5F8093EA
S11302300A01853018F081E080930A01FF91EF9163
S11302408F910F900FBE0F901F9018951F920F92D1
S11302500FB60F9211242F933F934F935F936F9395
S11302607F938F939F93AF93BF93EF93FF932091CB
S1130270780030917900A4EFB1E00E94AC012FEF37
S113028033E040E050E00E948A013093140120934F
S11302901301EAE7F0E0808180648083FF91EF91AD
S11302A0BF91AF919F918F917F916F915F914F918A
S11302B03F912F910F900FBE0F901F9018958FE1D3
S11302C084B98FEF8AB985B18E6185B917B80E9458
S11302D05300EAE7F0E0808187688083ACE7B0E010
S11302E08C9180648C938081886080838081806419
S11302F08083789480911301909114010E9461008D
S11303002FE788E391E0215080409040E1F700C05E
S11303100000F0CFA1E21A2EAA1BBB1BFD010DC0E9
S1130320AA1FBB1FEE1FFF1FA217B307E407F507A1
S113033020F0A21BB30BE40BF50B661F771F881F7D
S1130340991F1A9469F760957095809590959B0113
S1130350AC01BD01CF010895A29FB001B39FC001BC
S1130360A39F700D811D1124911DB29F700D811DDD
S10D03701124911D0895F894FFCFA5
S10D037A3F065B5766757D077F7729
S9030000FC
